:020000040800F2
:100000001005002045010008471700084D1500089D
:10001000431700081B0900086521000800000000C4
:10002000000000000000000000000000591A000855
:10003000EB130008000000000B190008AD1E0008BB
:100040005F0100085F0100085F0100085F01000810
:100050005F0100085F0100085F0100085F01000800
:100060005F0100085F0100085F0100085F010008F0
:100070005F010008E91000085F0100085F01000847
:100080005F0100085F0100085F0100085F010008D0
:10009000352100085F0100085F0100085F010008CA
:1000A0005F0100085F0100085F0100085F010008B0
:1000B0005F0100085F0100085F0100085F010008A0
:1000C0005F0100085F0100085F0100085F01000890
:1000D0005F0100085F0100085F0100085F01000880
:1000E0005F0100085F0100085F0100085F01000870
:1000F0005F0100085F0100085F0100085F01000860
:100100005F0100085F0100085F0100085F0100084F
:100110005F0100085F0100085F0100085F0100083F
:100120005F0100085F0100085F0100085F0100082F
:10013000DFF80CD000F058FA00480047F922000818
:10014000100500200648804706480047FEE7FEE706
:10015000FEE7FEE7FEE7FEE7FEE7FEE7FEE7FEE777
:10016000D91E000831010008F0B480EA0102D40F62
:100170004200B2EB410F02D20246084611464A0045
:1001800042D0C30DDDB2C1F3C752AD1A202D35DA0E
:10019000C1F3160141F4000204B15242C5F1200638
:1001A00002FA06F12A411044B3EBD05F23D0C4B168
:1001B000012DA0EBC35009DCF0BC4FF0004202EA75
:1001C000C352DBB200F5000000F082B9400000F13C
:1001D000807000EBC350A0F1807040EAD1704900FC
:1001E00009E0490841EAC071A0EBC35000F50000E6
:1001F000400800EBC350F0BC00F061B9614201223D
:1002000002EB4101001BF6E7F0BC704781F00041B2
:10021000AAE780F00040A7E780EA010210B502F0EB
:100220000043400022D04A001FD0010E01EB1261B2
:10023000C0F35600C2F3560240F4000042F400023C
:10024000A0FB022000047F39140400D0401C50EAB7
:10025000124001D44000491EC2B20C0604EBD0107B
:10026000401C4008802A02D003E0002010BD20F08E
:100270000100002900DA0020184310BD30B480EAE4
:10028000010202F0004530F0004221F0004013D09E
:1002900090B1C30DD40DC2F31601C0F31600E41AD9
:1002A00041F4000140F400027D34914201D3641C0A
:1002B00000E04900002C02DA30BC002070474FF407
:1002C00000000023914201D3891A034340084FEAFA
:1002D0004101F7D151B1914202D14FF0004105E007
:1002E00002D24FF0010101E06FF0010103EBC450B5
:1002F000284430BC00F0E3B82DE9FE4F81EA030446
:1003000004F0004421F0004100944FF0000B23F072
:10031000004350EA01045ED052EA03045BD0C3F309
:100320000A54C1F30A552C44A4F2F3340194A0FBFF
:100330000254C1F3130141F48011C3F3130343F4D6
:10034000801301FB024400FB034E840A970A44EA2F
:10035000815447EA8357A4FB076802958D0A05FB81
:1003600007854FEA932C04FB0C542705029D4FEAA6
:10037000065847EA1637B5EB08056EEB070C870EF3
:10038000920E47EA811742EA8312A7FB0201B6EBFD
:100390000B0164EB00042B0D43EA0C335E1844EBB5
:1003A0001C50DA465146E7FB0201C5F313044FEA3D
:1003B0000B3343EA14534FEA0432019C43EA060329
:1003C000A4F10C040294009CCDE900B400F0BDF847
:1003D00003B0BDE8F08F00200146F9E79623002224
:1003E000114600F075B820F00040C10DC0F31600B2
:1003F00040F400007F2901DA00207047962903DCD1
:10040000C1F19601C8407047963988407047C1F3E2
:100410000A5210B5C1F3130140F2FF3341F48011C9
:100420009A4201DA002010BD40F233439A42A2F210
:10043000334203DC524200F032F810BD904010BD50
:1004400000F0004230F000400AD0C10D01F56071AB
:10045000C0F3160042EA0151C20840071143704739
:1004600000200146704701F0004330B421F0004104
:1004700050EA010206D00A0DA2F56072C1F3130121
:10048000002A02DC30BC00207047440F44EAC1045B
:10049000C100E01830BC00EBC25000F010B8202AB8
:1004A00004DB203A21FA02F00021704721FA02F31E
:1004B000D040C2F1200291400843194670470029FC
:1004C000A8BF7047401C490008BF20F001007047DA
:1004D00010B4B0FA80FC00FA0CF050EA010404BF3A
:1004E00010BC704749B1CCF1200421FA04F411FA90
:1004F0000CF118BF012121430843A3EB0C01CB1DD4
:100500004FEA00614FEA102042BF002010BC704744
:1005100000EBC35010440029A4BF10BC7047401C1E
:10052000490008BF20F0010010BC704710B5141E30
:1005300073F1000408DA401C41F1000192185B419C
:100540001A4301D120F0010010BD2DE9F04D924673
:100550009B4611B1B1FA81F202E0B0FA80F220328A
:10056000904600F053F804460F4640EA0A0041EA7C
:100570000B0153465A46084313D0114653EA010073
:1005800019D0C8F140025046FFF789FF05460E46D4
:1005900050465946424600F039F8084305D001203C
:1005A00004E020463946BDE8F08D0020054346EAC8
:1005B000E0762C4337430A986305E40AA0EB080071
:1005C0000022FD0A44EA47540A3002D500200146C1
:1005D000E9E7010510196941DDE90845001969419C
:1005E000BDE8F04DA2E70000064C074D06E0E068CC
:1005F00040F0010394E8070098471034AC42F6D36A
:10060000FFF79AFD2023000840230008202A04DB7E
:10061000203A00FA02F1002070479140C2F1200315
:1006200020FA03F319439040704721B1826842F0E9
:100630000102826003E0826822F00102826070475A
:1006400021B1826842F48072826003E0826822F401
:10065000807282607047014600208A6802F00402BE
:100660000AB1012000E000207047014600208A689E
:1006700002F008020AB1012000E0002070470000EB
:1006800030B502460020002350680F4C20400D7901
:100690000C6844EA05242043506090680B4C2040CD
:1006A000D1E902542C434D7944EA4504204390603B
:1006B000D06A20F470000C7C641EE4B2234340EA4C
:1006C0000350D06230BD0000FFFEF0FFFDF7F1FFE8
:1006D000F0B504460D4600200021092D11DDE0682B
:1006E000A5F10A0606EB4607072606FA07F1884336
:1006F000A5F10A0606EB460603FA06F10843E06098
:100700000CE0206905EB4507072606FA07F1884348
:1007100005EB450603FA06F108432061072A0FDAC4
:10072000606B561E06EB86071F2606FA07F1884304
:10073000561E06EB860605FA06F10843606322E0C2
:100740000D2A0FDA206BD61F06EB86071F2606FA46
:1007500007F18843D61F06EB860605FA06F1084323
:10076000206310E0E06AA2F10D0606EB86071F2663
:1007700006FA07F18843A2F10D0606EB860605FA94
:1007800006F10843E062F0BD816841F00801816034
:10079000704721B1826842F4A002826003E082685F
:1007A00022F4A00282607047816841F004018160F8
:1007B0007047000008B50121042001F0D3F8A22001
:1007C000ADF8000000208DF803006946014800F0F4
:1007D0000DFE08BD0008014010B5FFF7EBFF00F06B
:1007E00001F810BD00B591B00121084601F09AF85A
:1007F0000121480201F0B6F83A4800F013FD3A48EA
:1008000006903A48079000200890032009900020A5
:100810000A9080200B9040000C9080000D902020CA
:100820000E9000020F900020109006A92D4800F0B5
:10083000BEFD01212B4800F0E9FC002001900120C1
:100840008DF808008DF809004FF460200390002017
:10085000049003208DF8140001A923484C38FFF7B9
:100860000FFF4FF4404001F051F8052301221146DB
:100870001D484C38FFF72CFF0523022219461A4861
:100880004C38FFF725FF05230322072116484C3873
:10089000FFF71EFF012114484C38FFF7D1FE01215C
:1008A00011484C38FFF7C1FE0F484C38FFF76CFF7A
:1008B00000BF0D484C38FFF7D8FE0028F9D10A4890
:1008C0004C38FFF771FF00BF07484C38FFF7C3FEF5
:1008D0000028F9D1012104484C38FFF75AFF11B024
:1008E00000BD0000080002404C24014040000020F0
:1008F00008B501F075FC01F01FFBFFF76DFF00204C
:10090000062301220221009000F05CFB01F020FA96
:1009100000F07BFF00F05AFF08BD00BFFEE70000BB
:100920002DE9F04F85B004460D4616461F46DDE919
:1009300010ABDDE90E8940F20230009000208DF806
:1009400008008DF8090008208DF80A008DF80B408A
:100950008DF80C508DF80D608DF80E708DF80F80AD
:100960008DF810908DF811A08DF812B069460348EB
:1009700000F079FA05B0BDE8F08F00000064004097
:10098000B1F5007F3AD00FDC202928D006DC012900
:100990001CD004291DD0082940D11DE0402921D0B8
:1009A000B1F5807F3AD126E0B1F5004F31D006DCB9
:1009B000B1F5806F25D0B1F5006F2FD124E0B1F5EE
:1009C000803F12D0B1F5003F28D111E0154A826076
:1009D00025E00822C26022E01022C2601FE0082247
:1009E00002611CE01022026119E00822426016E058
:1009F0001022426013E00422426010E004224260B0
:100A00000DE0042242600AE000228261042242607A
:100A100005E0002282610422426000E000BF00BFC6
:100A2000704700000101010010B50021837A012206
:100A300002FA03F13D4A126842F001023B4B1A6090
:100A40003A4A1C3212688A43384B1C331A60027BC4
:100A5000CAB9364A0C3212688A43344B0C331A60D6
:100A60004288C38842EA0343304A4032847A42F8DB
:100A700034300288838842EA03432C4A4032847A25
:100A800002EBC4025360027B012A19D1274A0C32BF
:100A900012680A43254B0C331A604288038842EAE5
:100AA0000343224A4032847A42F83430C288838831
:100AB00042EA03431D4A4032847A02EBC402536087
:100AC000C27A3AB9194A121D12688A43174B1B1D84
:100AD0001A6006E0154A121D12680A43134B1B1DCB
:100AE0001A60028932B9114A143212688A430F4BD4
:100AF00014331A600289012A06D10C4A1432126892
:100B00000A430A4B14331A60427B012A06D1074A72
:100B10001C3212680A43054B1C331A60034A1268E0
:100B200022F00102014B1A6010BD00000066004077
:100B300070B504460D46002660692840002871D033
:100B4000B5F5807F5CD010DC082D35D006DC012D9A
:100B500020D0022D24D0042D72D127E0102D31D0C9
:100B6000202D35D0402D6BD138E0B5F5004F60D049
:100B700009DCB5F5007F49D0B5F5806F4CD0B5F5EF
:100B8000006F5DD14FE0B5F5803F2DD0B5F5003F4A
:100B900056D12FE0A0682D4900F09CFA064651E09E
:100BA000E068032100F096FA06464BE0E068082171
:100BB00000F090FA064645E0E068102100F08AFA5D
:100BC00006463FE02069032100F084FA064639E03A
:100BD0002069082100F07EFA064633E020691021E2
:100BE00000F078FA06462DE06068082100F072FAFD
:100BF000064627E06068102100F06CFA064621E006
:100C0000A069012100F066FA06461BE0A0690221F6
:100C100000F060FA064615E0A069042100F05AFAD7
:100C200006460FE00FE0A069702100F053FA064677
:100C300008E06068042100F04DFA064602E0FFE794
:100C4000002600BF00E00026304670BD0101010013
:100C50001AB143690B43436102E043698B4343612B
:100C6000704730B5024600200023146824F00204C7
:100C70001460146844F00104146000E05B1C5468C4
:100C800004F001041CB94FF6FF74A342F6D1546876
:100C900004F001040CB900206CE08C79012C04D123
:100CA000146844F08004146003E0146824F08004A5
:100CB0001460CC79012C04D1146844F04004146011
:100CC00003E0146824F0400414600C7A012C04D171
:100CD000146844F02004146003E0146824F0200435
:100CE00014604C7A012C04D1146844F01004146090
:100CF00003E0146824F0100414608C7A012C04D1F1
:100D0000146844F00804146003E0146824F0080434
:100D10001460CC7A012C04D1146844F004041460EB
:100D200003E0146824F0040414608C78A407CD78E0
:100D300044EA05640D7944EA05444D7944EA0554D2
:100D40000D886D1E2C43D461146824F001041460D6
:100D5000002300E05B1C546804F001041CB14FF652
:100D6000FF74A342F6D1546804F001040CB10020D2
:100D700000E0012030BD10B500F5D87303EB01137E
:100D80001B6803F004031372137A53B900F5D87388
:100D900003EB01131B6840F2FF7404EA5353136022
:100DA00009E000F5D87303EB01131B686FF0604492
:100DB00004EAD303536000F5D87303EB01131B68F7
:100DC00003F00203537200F5D87303EB01135B6861
:100DD00003F00F03937200F5D87303EB01135B6804
:100DE0001B0AD37400F5D87303EB01139B68D3720D
:100DF00000F5D87303EB01139B681C0A147300F50C
:100E0000D87303EB01139B681C0C547300F5D87363
:100E100003EB01139B681B0E937300F5D87303EB70
:100E20000113DB68D37300F5D87303EB0113DB68A0
:100E30001C0A147400F5D87303EB0113DB681C0C57
:100E4000547400F5D87303EB0113DB681B0E937425
:100E500021B9C36843F02003C36003E0036943F092
:100E60002003036110BD10B502460020936803F013
:100E70008063B3F1806F00D110E0936803F00063EA
:100E8000B3F1006F01D1012008E0936803F08053B3
:100E9000B3F1805F01D1022000E00420042874D067
:100EA00002F5C07303EB00131B6803F0010402F5A5
:100EB000C07303EB00131C600B7A7BB94B7A0C8870
:100EC00043EA445302F5C07404EB0014246823433E
:100ED00002F5C07404EB0014236010E00B7A4C6838
:100EE00043EAC4034C7A234302F5C07404EB0014B4
:100EF0002468234302F5C07404EB001423608B7A4A
:100F000003F00F038B7202F5C07303EB00135B68F1
:100F100023F00F0402F5C07303EB00135C6002F5CD
:100F2000C07303EB00135B688C7A234302F5C07433
:100F300004EB001463608B7B1C064B7B44EA034488
:100F40000B7B44EA0323CC7A234302F5C07404EB01
:100F50000014A3608B7C1C064B7C44EA03440B7C8E
:100F600044EA0323CC7B234302F5C07404EB001452
:100F7000E36002F5C07303EB00131B6843F0010448
:100F800002F5C07303EB00131C6010BD0168A1F2F1
:100F9000013189B9C17A0A4A1170017B5170417BD4
:100FA0009170817BD170C17B1171017C5171417C49
:100FB0009171817CD17100E000BF00BF70470000DB
:100FC000380000202DE9F0418AB004460D4616464F
:100FD0001F46DDF840800121042000F0C3FC012100
:100FE000480600F0AFFC4FF48050ADF82400032019
:100FF0008DF8260018208DF8270009A9334800F045
:10100000F5F94FF40060ADF8240003208DF82600B8
:1010100048208DF8270009A92C4800F0E7F90020A6
:101020008DF81E0001208DF81F0000208DF8200093
:1010300001208DF8210000208DF8220001208DF87C
:1010400023008DF81A808DF81B408DF81C608DF8F8
:101050001D50ADF8187006A91D48FFF702FE0A20C2
:101060008DF8120000208DF8130001208DF8140077
:10107000C003ADF808000020ADF80A00ADF80C0080
:10108000ADF80E00ADF8100001208DF8150002A893
:10109000FFF7CAFC012202210D48FFF7D9FD01220A
:1010A00011460B48FFF7D4FD14208DF804000220F0
:1010B0008DF805008DF8060001208DF8070001A8C5
:1010C00000F042FB0AB0BDE8F081000000080140DA
:1010D000006400400246002002EA01030BB1012037
:1010E00000E000207047000010B54FF4007000F0E1
:1010F0003FF9002868D04FF4007000F06BF84FF40F
:10110000007000F075F8314800783049497840EABD
:101110000120C0F30A002E4908802C484078C010F6
:101120002A49897840EA4110C0F30A0028494880DA
:101130002648807880112549C97840EA81002349F2
:10114000097940EA8120C0F30A00214988801F48BC
:10115000007940101D49497940EAC110C0F30A00E6
:101160001B49C88019484079001180080872174847
:101170004079C0F301104872144880791349C97945
:1011800040EA0120124948811048007A0F49497A03
:1011900040EA01210E4881810C48807A0B49C97AC6
:1011A00040EA01210A48C1810848017B08480174CE
:1011B0000648417B064841740448807B0349C97B4B
:1011C00040EA01200249488210BD00009C00002036
:1011D000AE00002000F0805111B10349086001E029
:1011E00002494860704700000404024000000240C9
:1011F00000F0805111B10349086001E002494860E4
:1012000070470000040402400000024021B102685F
:1012100042F00102026004E002684FF6FE731A40D9
:101220000260704701684FF6FE72114001600021B4
:10123000016041608160C1604B49884208D14A49E0
:101240000839496841F00F01474A083A51608AE07D
:1012500045491431884208D143490839496841F069
:10126000F001414A083A51607DE03F492831884207
:1012700008D13D490839496841F470613A4A083A51
:10128000516070E038493C31884208D1364908390C
:10129000496841F47041344A083A516063E0324988
:1012A0005031884208D130490839496841F47021E9
:1012B0002D4A083A516056E02B496431884208D1E2
:1012C00029490839496841F47001274A083A5160B0
:1012D00049E025497831884208D1234908394968CD
:1012E00041F07061204A083A51603CE01F49884251
:1012F00006D1011F096841F00F01021F116032E0A1
:101300001A491431884208D11849091F096841F067
:10131000F001164A121F116025E014492831884255
:1013200008D11249091F096841F470610F4A121F60
:10133000116018E00D493C31884208D10B49091F62
:10134000096841F47041094A121F11600BE0074916
:101350005031884207D10549091F096841F47021BD
:10136000024A121F11607047080002400804024040
:1013700001460020002201F0805313B1054B1A688A
:1013800001E0054B1A6802EA01030BB1012000E0FD
:101390000020704700040240000002401AB10368B8
:1013A0000B43036002E003688B430360704710B592
:1013B0000022026847F6F0739A430C6A8B68234355
:1013C0000C6923434C6923438C692343CC69234331
:1013D0004C6A23438C6A23431A430260CB68436000
:1013E0000B6883604B68C36010BD70472DE9F04106
:1013F000024600250026002000230024002791F843
:1014000003C00CF00F0591F803C00CF0100CBCF1F8
:10141000000F03D091F802C04CEA050591F800C016
:10142000BCF1000F31D0146800202BE04FF0010C0C
:101430000CFA00F3B1F800C00CEA03069E4220D17A
:1014400083004FF00F0C0CFA03F7BC4305FA03FCC2
:101450004CEA040491F803C0BCF1280F06D14FF008
:10146000010C0CFA00FCC2F814C00AE091F803C0A9
:10147000BCF1480F05D14FF0010C0CFA00FCC2F88A
:1014800010C0401C0828D1D31460B1F800C0BCF1D2
:10149000FF0F34DD546800202EE000F1080C4FF0FF
:1014A000010808FA0CF3B1F800C00CEA03069E42EA
:1014B00021D183004FF00F0C0CFA03F7BC4305FA5F
:1014C00003FC4CEA040491F803C0BCF1280F05D1D9
:1014D00000F1080C08FA0CF8C2F8148091F803C067
:1014E000BCF1480F07D100F1080C4FF0010808FAD1
:1014F0000CF8C2F81080401C0828CED35460BDE818
:10150000F0814161704701617047000000BF0E4AE1
:1015100011684FF0E02252694FF0E0239B69D21A24
:101520004FF47A735A434FF0E0235B69B2FBF3F256
:1015300001EB4103C3EBC11302EBC300024A126883
:101540009142E4D1704700003000002000BFFEE768
:1015500008B50121082000F005FAC020ADF8000010
:1015600010208DF8030003208DF80200694604481E
:10157000FFF73CFFC0210248FFF7C5FF08BD000090
:10158000000C014070B504461548006820F070401A
:10159000134908600846006840F040500860002089
:1015A00010490860002517E0E0090E49091D086090
:1015B0006006040E022000F06FFE01200A49C1F807
:1015C0009801022000F068FE002006490860022011
:1015D00000F062FE681CC5B2082DE5DB70BD00009E
:1015E000000C0140988121420080214210B50F4833
:1015F000006820F070400D4908600846006840F01F
:101600004050086001200A4908600A49C1F8980161
:10161000042000F041FE002005490860042000F08D
:101620003BFE00200349C1F8980110BD000C0140A9
:101630009C8121420080214210B50F48006820F0B3
:1016400070400D4908600846006840F0405008604E
:1016500000200A4908600A49C1F89C01042000F0F2
:101660001BFE0120054908600549C1F89C010420C2
:1016700000F012FE10BD0000000C014098812142D4
:101680000080214210B500241448006820F070400A
:10169000124908600846006840F0004008600120D8
:1016A0000F49086000F0F8FD01200E49C1F89801CB
:1016B00000F0F2FD07E0601CC4B2FA2C03DDFFF776
:1016C000BBFF012010BD0648803800680028F2D119
:1016D0000349091F086000BFF4E70000000C014047
:1016E0009C8121420080214210B50F4840680E497C
:1016F0000860FFF70BFF0C4948600C49C8600A48B6
:10170000406809490968401A0749886000F080FB71
:10171000FFF7FCFE0549086108460069C968401AE0
:101720000249486110BD0000EC000020F8000020D4
:1017300010B500F0DDF810BD704770477047704776
:10174000704700BFFEE7704770B5002100230F22ED
:10175000C47804B3154C246804F4E064C4F5E06470
:10176000210AC1F10403CA40447804FA03F18478E1
:101770001440214309010E4C0678A155047804F069
:101780001F050124AC4005786D11AD0005F1E02581
:10179000C5F8004109E0047804F01F050124AC40BD
:1017A000044D0678761145F8264070BD0CED00E03A
:1017B00000E400E080E100E002490143024A1160D8
:1017C000704700000000FA050CED00E070B5002441
:1017D00018E004F1B000002100F08BF80021084669
:1017E00000F087F80021102000F083F8002505E0C4
:1017F0000121002000F07DF8681CC5B2802DF7DBC8
:10180000601CC4B2082CE4DB70BD10B5FFF7A0FE6D
:10181000C82000F019FD0021AE2000F06AF8002178
:10182000084600F066F80021102000F062F8002160
:10183000402000F05EF80021B02000F05AF80021AE
:10184000812000F056F80021082000F052F8002115
:10185000A12000F04EF80021A62000F04AF8002157
:10186000A82000F046F800213F2000F042F80021B7
:10187000C82000F03EF80021D32000F03AF8002103
:10188000084600F036F80021D52000F032F800219B
:10189000802000F02EF80021D82000F02AF8002146
:1018A000052000F026F80021D92000F022F80021C0
:1018B000F12000F01EF80021DA2000F01AF80021D3
:1018C000122000F016F80021DB2000F012F80021B1
:1018D000302000F00EF800218D2000F00AF80021E1
:1018E000142000F006F80021AF2000F002F810BD2F
:1018F000704770B504460D461DB1E0B200F04AFCD9
:1019000002E0E0B200F030FC70BD704701460020FC
:10191000034A506820F4404008435060704700007C
:101920000010024029B1064A52690243044B5A6131
:1019300004E0034A52698243014B5A617047000038
:101940000010024029B1064AD2690243044BDA6111
:1019500004E0034AD2698243014BDA617047000018
:101960000010024029B1064A92690243044B9A6171
:1019700004E0034A92698243014B9A617047000078
:101980000010024030B500210022002400232D4D1C
:101990006D6805F00C0121B1042905D0082923D177
:1019A00005E0294D056022E0274D05601FE0254D2B
:1019B0006D6805F47012234D6D6805F480340225BE
:1019C00005EB92421CB9214D554305600BE01D4DBE
:1019D0006D6805F400351DB11C4D5543056002E0EE
:1019E000194D5543056002E0174D056000BF00BF6B
:1019F000144D6D6805F0F0010909154D6B5C056823
:101A0000DD4045600F4D6D6805F4E061090A104D39
:101A10006B5C4568DD4085600A4D6D6805F460517A
:101A2000C90A0B4D6B5C4568DD40C560054D6D68AE
:101A300005F44041890B074D6B5CC568B5FBF3F5B8
:101A4000056130BD0010024000127A0000093D001F
:101A500014000020240000207047000070B500240E
:101A600000BF1EE000F01CFA054604EB44000E49DE
:101A700001EB80008068281A04EB44010A4A02EB5B
:101A80008101C98888420AD304EB4400114601EB66
:101A90008000856004EB440152F821008047601CFF
:101AA000C4B2072CDED370BD48000020002000BF68
:101AB0001FE000EB4001104A02EB810189884FF4DE
:101AC0007A7292FBF1F100EB40020B4B03EB8202C6
:101AD000D18000EB40011A4602EB8101C98801293F
:101AE00005DA012100EB400203EB8202D180411CA8
:101AF000C8B20728DDD370474800002010B500F0B9
:101B000001F810BD0CB5002001900090334800682A
:101B100040F480303149086000BF3048006800F46C
:101B2000003000900198401C0190009818B901986D
:101B3000B0F5A06FF1D12948006800F4003010B171
:101B40000120009001E0002000900098012843D17E
:101B50002348006840F010002149086008460068EA
:101B600020F0030008600846006840F002000860AA
:101B70001A48406819494860084640684860084665
:101B8000406840F4806048600846406820F47C105B
:101B900048600846406840F4E8104860084600681D
:101BA00040F08070086000BF0C48006800F00070D2
:101BB0000028F9D00948406820F003000749486030
:101BC0000846406840F00200486000BF0348406893
:101BD00000F00C000828F9D10CBD000000100240F4
:101BE000002002402DE9F04F85B00446657A267A40
:101BF0001349E068FEF710FB0390FEF7F4FBC0F317
:101C000007270F49E068FEF707FB0390FEF7EBFBA1
:101C100000F0FF0894F8089094F808A094F808B031
:101C2000207A0490049843463A4631468DE8000EE7
:101C300003902846FEF774FE05B0BDE8F08F000063
:101C40000000C8422DE9F84F8246BAF1000F01D1D9
:101C5000BDE8F88F28490888FEF7C0FB81464FF0A1
:101C60008B41FEF70BFB8046FEF7EAFB06464FF082
:101C70006632224BFEF740FB0446FEF7C8FB8AF8AB
:101C80000A001D494888FEF7A9FB4FF08B410090E0
:101C9000FEF7F4FA8346FEF7D3FB80464FF0663238
:101CA000164BFEF729FB06464FF06042144BFEF739
:101CB00023FB0446FEF7D7FBCAF80C000E498888C0
:101CC000FEF78CFB4FF08B410090FEF7D7FA83466E
:101CD000FEF7B6FB06464FF06632084BFEF70CFBEC
:101CE00004460022074BFEF707FB8046FEF7BBFBCE
:101CF000CAF8100000BFABE74000002066660A404B
:101D00000D3E1C400000264008B501210820FFF7C9
:101D100029FE0120ADF8000010208DF803000320FB
:101D20008DF8020069460948FFF760FB0220ADF814
:101D3000000069460548FFF759FB01210348FFF7FA
:101D4000E0FB02210148FFF7DCFB08BD000C01406D
:101D500010B5FFF7D9FF00F0CBFA0A49086000F090
:101D6000C3FA0849486000210648817200200549ED
:101D7000087200210348417200200249C8600861CE
:101D800010BD0000C400002000B9704700BFFCE790
:101D900010B5044604B910BD607A10B1022806D10E
:101DA00002E000F059F803E000F05EF800E000BF48
:101DB00000BF207A10B1012806D102E000F03CF803
:101DC00003E000F041F800E000BF00BF00BFE2E721
:101DD00000B970474168497811B1022906D102E083
:101DE0000022427203E00222427200E000BF00BF04
:101DF0004168097811B1012906D102E00021017280
:101E000003E00121017200E000BF00BF00BFE0E776
:101E100010B50848FFF7DCFF0648FFF7B5FF054897
:101E2000FFF710FF0348FFF7B3FF0248FFF7DAFEA2
:101E300010BD0000C400002010B501210148FFF7CB
:101E400060FB10BD000C014010B501210148FFF7F7
:101E50005AFB10BD000C014010B502210148FFF7EC
:101E600050FB10BD000C014010B502210148FFF7E6
:101E70004AFB10BD000C0140042808D14FF0E021BE
:101E8000096941F004014FF0E022116107E04FF0D1
:101E9000E021096921F004014FF0E022116170474F
:101EA00001480068704700002C00002010B54FF07A
:101EB0007E5107480068FEF757F905490860054854
:101EC0000068401C0349086000F022FA10BD0000C1
:101ED000340000203000002010B51348006840F0A6
:101EE00001001149086008464068104908400E4941
:101EF0004860084600680E4908400B4908600846DB
:101F0000006820F4802008600846406820F4FE0045
:101F100048604FF41F008860FFF7F0FD4FF000604D
:101F20000449086010BD0000001002400000FFF8E6
:101F3000FFFFF6FE08ED00E000B591B0012108209A
:101F4000FFF710FD01218804FFF7FCFC0121084682
:101F5000FFF7E8FC4FF40060ADF8400004208DF876
:101F6000430003208DF8420010A92C48FFF73EFAE9
:101F70002B480C900020ADF83400ADF836004FF43B
:101F80008060ADF838000020ADF83C000420ADF8CA
:101F90003A000CA9234800F061F80121214800F023
:101FA00047F8012240211F4800F04EF84FF4A0608E
:101FB000FFF702FC0D208DF8000001208DF80100D4
:101FC0008DF802008DF803006846FFF7BDFB154849
:101FD000001D0190144802900020039012200490EC
:101FE0000020059080200690002007900890202077
:101FF00009904FF440500A9000200B9001A90B4823
:10200000FFF7D5F9012202210848FFF7C7F901219E
:102010000648FFF7FBF811B000BD0000000C0140BE
:10202000A0860100004800409C00002030000240D3
:1020300021B1828942F40052828104E082894DF606
:10204000FF731A40828170471AB1838A0B438382DF
:1020500002E0838A8B438382704700002DE9F047BA
:1020600086B005460E460024A24600BFA1460027C2
:10207000B08900B100BF2F462C8A4CF6FF70044097
:10208000F08804432C82AC894EF6F3100440B088EB
:1020900031890843718908430443AC81AC8A4FF607
:1020A000FF400440B0890443AC8201A8FFF76AFCFA
:1020B0001F48874202D1DDF810A001E0DDF80CA036
:1020C000A88900F4004040B10AEBCA0000EB0A10F6
:1020D00031684900B0FBF1F807E00AEBCA0000EBF9
:1020E0000A1031688900B0FBF1F86420B8FBF0F009
:1020F00004012009642101FB1089A88900F4004033
:1021000040B1322000EBC900B0FBF1F000F0070055
:10211000044308E0322000EB09106421B0FBF1F029
:1021200000F00F0004432C8106B0BDE8F0870000EA
:102130000038014010B502210848FEF7F9FC58B1FB
:1021400002210648FEF71CFC054A00210348FEF761
:1021500012FE0348FEF71AFF10BD000000640040A5
:10216000D800002000BFFEE710B50446FFF73EFA96
:102170007820FFF707FAFFF785FA0020FFF702FA49
:10218000FFF780FA2046FFF7FDF9FFF77BFAFFF72C
:1021900053FA10BD10B50446FFF728FA7820FFF770
:1021A000F1F9FFF76FFA4020FFF7ECF9FFF76AFA51
:1021B0002046FFF7E7F9FFF765FAFFF73DFA10BD94
:1021C00002E008C8121F08C1002AFAD17047704700
:1021D000002001E001C1121F002AFBD1704700005E
:1021E00010B50024601FFFF747FE1348006813492D
:1021F000B0FBF1F0124908700F4800684FF4FA5133
:10220000B0FBF1F00F4908800B4800684FF47A7179
:10221000B0FBF1F0C408641E4FF0E020006940F00C
:1022200002004FF0E021086108464461006940F077
:102230000100086110BD00000000002000127A00BB
:10224000280000202A00002070B503460024002149
:102250000020002200254FF0E02675690D4E3688DB
:1022600003FB06F44FF0E026B16910E04FF0E026E2
:10227000B06988420BD0884202D20E1A324402E082
:102280002E1A0E4432440146A24200D300E0EDE78C
:1022900000BF70BD2A00002070B503460024002155
:1022A0000020002200254FF0E02675690D4E36789B
:1022B00003FB06F44FF0E026B16910E04FF0E02692
:1022C000B06988420BD0884202D20E1A324402E032
:1022D0002E1A0E4432440146A24200D300E0EDE73C
:1022E00000BF70BD28000020004870473800002063
:1022F00000487047AE000020FEF7FAFA6420FFF7AE
:10230000A3FFFFF7D3FB01E0FFF7A8FBFCE700000A
:1023100002480068401C0149086070472C000020FA
:1023200040230008000000209C000000C02100089D
:10233000DC2300089C00002074040000D021000869
:1023400000A24A0400000000000000000102030493
:10235000060708090000000001020304010203044B
:10236000060708090204060800000000000000003B
:10237000000000000000000000000000000000005D
:102380000000000000000000E9160008E80300005B
:10239000000000003F170008F401000000000000EA
:1023A00039170008C80000000000000031170008BD
:1023B0006400000000000000411700083200000027
:1023C000000000003B17000814000000000000009F
:0C23D0003D1700080200000000000000A3
:0400000508000131BD
:00000001FF
